{
  "contractName": "DappToken",
  "abi": [
    {
      "constant": true,
      "inputs": [],
      "name": "totalSupply",
      "outputs": [
        {
          "name": "",
          "type": "uint256"
        }
      ],
      "payable": false,
      "stateMutability": "view",
      "type": "function"
    },
    {
      "inputs": [],
      "payable": false,
      "stateMutability": "nonpayable",
      "type": "constructor"
    }
  ],
  "bytecode": "0x608060405234801561001057600080fd5b50620f4240600081905550609e806100296000396000f300608060405260043610603f576000357c0100000000000000000000000000000000000000000000000000000000900463ffffffff16806318160ddd146044575b600080fd5b348015604f57600080fd5b506056606c565b6040518082815260200191505060405180910390f35b600054815600a165627a7a72305820b0299d93b4aff15c4201e8d9437677dc6e5a9aa959d577042838225dba8be3c90029",
  "source": "pragma solidity >=0.4.22 <0.9.0;\r\n\r\ncontract DappToken {\r\n    // Constructor \r\n    // Set the tokens\r\n    //Read total number of Tokens\r\n    uint256 public totalSupply;\r\n\r\n    function DappToken() public {\r\n        totalSupply = 1000000;\r\n\r\n    }\r\n}",
  "sourcePath": "C:/Users/Balta/Desktop/Dev Training/Dapp University/Token_Sale/contracts/DappToken.sol",
  "compiler": {
    "name": "solc",
    "version": "0.4.22+commit.4cb486ee.Emscripten.clang"
  },
  "schemaVersion": "3.4.1",
  "updatedAt": "2021-05-26T23:24:25.266Z",
  "networkType": "ethereum",
  "devdoc": {
    "methods": {}
  },
  "userdoc": {
    "methods": {}
  }
}